:020000040800F2
:10000000C806002001010008471B00085717000818
:10001000451B00086D010008812000080000000059
:10002000000000000000000000000000971B000816
:100030006F01000800000000951B0008991B0008D4
:100040001B0100081B0100081B0100081B01000820
:100050001B0100081B0100081B0100081B01000810
:100060001B0100081B0100081B0100081B01000800
:100070001B0100081B0100081B0100081B010008F0
:100080001B0100081B0100081B0100081B010008E0
:100090001B0100081B0100081B0100081B010008D0
:1000A0001B0100081B0100081B0100081B010008C0
:1000B0001B0100081B010008FD1B00081B010008B4
:1000C0001B0100081B0100081B0100081B010008A0
:1000D0001B0100085D200008692000087520000849
:1000E0001B0100081B0100081B010008DFF80CD0F1
:1000F00000F02AF800480047C1200008C806002088
:100100000648804706480047FEE7FEE7FEE7FEE7B1
:10011000FEE7FEE7FEE7FEE7FEE7FEE7FB1B000863
:10012000ED000008D2B201E000F8012B491EFBD21D
:1001300070470022F6E710B513460A4604461946F2
:10014000FFF7F0FF204610BD064C074D06E0E068C3
:1001500040F0010394E8070098471034AC42F6D30E
:10016000FFF7C8FFB4230008D4230008FEE7704758
:1001700072B6FEE710B590F821100022022905D0D2
:100180000421816380F82020012010BD01680B68E4
:1001900023F00E030B6001680B6823F001030B6072
:1001A00090F84030C46B012101FA03F3636080F8DA
:1001B000211080F82020104610BD000010B590F8E6
:1001C00021100024022903D00421816301243DE091
:1001D00001680A6822F00E020A6001680A6822F0CB
:1001E00001020A601A4A0168914201D1012121E00D
:1001F000174A1432914201D110211BE0144A2832CF
:10020000914201D1891515E0114A3C32914201D148
:1002100089140FE00E4A5032914202D14FF48031DE
:1002200008E00B4A6432914202D14FF4801101E0A0
:100230004FF08071064A083A5160012180F8211080
:10024000002180F82010416B01B18847204610BD85
:100250000800024070B5044600F004F90546601C31
:1002600002D004480078044400F0FCF8401BA0428F
:10027000FAD370BD200000202DE9F84FDFF8B891C7
:100280000024A9F1040B23460F2709F1040AABF15E
:10029000040EC9E00125A5402A40AA427DD1674E3F
:1002A000D1F804C0ACEB0608B44532D014DCBCF184
:1002B000030F3AD009DCBCF1000F2AD0BCF1010FCA
:1002C0001CD0BCF1020F31D11DE0BCF1110F17D0D1
:1002D000BCF1120F2AD119E0B8F5881F19D006DC3D
:1002E000B8F5803F15D0B8F5801F1FD111E0B8F5E3
:1002F000001F0ED0B8F5041F18D10AE0CB6815E036
:10030000CB681B1D12E0CB6808330FE0CB680C33C1
:100310000CE08B682BB1012B4FF0080303D0456133
:1003200004E0042302E0056100E00023FF2A01D875
:10033000064601E000F104064FEA840501D9A5F163
:100340002005D6F8008007FA05FC28EA0C0803FA15
:1003500005F548EA0508C6F800804D68ED0062D54D
:10036000374DAE6946F00106AE61AD6924F0030673
:1003700005F001050095334D06EB050CDCF808503F
:10038000A607360F07FA06F825EA0805DFF8B88051
:10039000404503D14FF0000817E044E0DFF8AC809F
:1003A000404502D14FF001080FE0DFF8A48040453E
:1003B00002D14FF0020808E0DFF89880404502D1F2
:1003C0004FF0030801E04FF0040808FA06F848EA85
:1003D0000508CCF808804D68D9F80060ED024D465C
:1003E00001D5164300E096432E604D68DAF80060B0
:1003F000AD02554601D5164300E096432E604D6888
:10040000DBF80060AD035D4601D5164300E096437E
:100410002E604D68DEF80060ED03754601D5164389
:1004200000E096432E60641C0D682A46E5407FF488
:1004300031AFBDE8F88F0000080401400000111042
:10044000001002400000014000080140000C014083
:1004500000100140001401400AB101617047090415
:10046000FBE7000001488068704700002000002082
:1004700002488168027811448160704720000020A2
:10048000074810B5016841F010010160032000F039
:1004900075F80F2000F006F800F024F8002010BDD9
:1004A0000020024070B50D4D04464FF47A71287853
:1004B000B1FBF0F00A490968B1FBF0F000F0DCFA9A
:1004C00048B9102C07D200222146501E00F036F801
:1004D00000206C6070BD012070BD00002000002075
:1004E0002C0000200C4808B5816941F001018161B0
:1004F000816901F001010091C16941F08051C16140
:10050000C06900F0805000900448416821F0E0612B
:1005100041F00071416008BD001002400000014040
:10052000002809DB00F01F020121914040098000F2
:1005300000F1E020C0F8001170470000F0B40E4B4D
:100540001B680C46C3F30223C3F10705042D00D931
:100550000425191D072901D2002300E0DB1E012616
:1005600006FA05F1491E214099409E40761E16402C
:100570003143F0BC01F085BD0CED00E0064900F010
:10058000070208684FF6FF03184040EA0220034ABA
:1005900010430860704700000CED00E00000FA0511
:1005A0002DE9F0470F46050061D0434E306800F05A
:1005B0000700B84209D2306820F0070038433060A5
:1005C000306800F00700B84251D128683B4C8107E1
:1005D00012D5400703D5606840F4E0606060287879
:1005E000000703D5606840F4605060606068A968E7
:1005F00020F0F000084360602878C00728D06868C1
:10060000012810D02168022810D0890700292EDA8D
:10061000616821F0030101436160FFF723FF804619
:1006200041F288390DE021688903EFE78901EDE7A0
:10063000FFF718FFA0EB0801494502D90320BDE8E8
:10064000F0876068696800F00C00B0EB810FEFD1B3
:10065000306800F00700B8420BD9306820F007007E
:1006600038433060306800F00700B84201D0012004
:10067000E5E72878400705D56068E96820F4E06080
:10068000084360602878000706D56068296920F46F
:10069000605040EAC100606000F038F86168084AC4
:1006A000C1F30311515CC840064908600648006860
:1006B000FFF7F8FE0020C2E70020024000100240D1
:1006C0009A2300082C00002024000020044805493B
:1006D00000684968044AC1F30221515CC840704770
:1006E0002C00002000100240AA23000804480549FD
:1006F00000684968044AC1F3C221515CC840704790
:100700002C00002000100240AA2300080E4A516865
:100710000E4801F00C03042B11D0082B0FD10C480C
:10072000C1F38343C903C05C0AD55168084AC1F3C9
:100730004041921E515C054A5043B0FBF1F07047B6
:1007400004494843704700000010024000127A003C
:100750008A23000800093D002DE9F84F040070D0FD
:100760002078C04DC00749D06868C0F381000128D7
:1007700007D06868C0F38100022809D16868C00307
:1007800006D52868800339D560680028E7D035E0B1
:100790006068B0F5803F0BD010B1B0F5A02F11D03C
:1007A000286820F480302860286820F4802002E047
:1007B000286840F480302860606890B1FFF752FEEE
:1007C00006460AE0286840F480202860F0E700BF71
:1007D000FFF748FE801B642873D828688003F7D58C
:1007E0000CE0FFF73FFE064605E000BFFFF73AFECC
:1007F000801B6428F0D828688003F7D420789A4EAC
:1008000080074FF001094FF0000839D5686810F0F3
:100810000C0F07D06868C0F38100022809D168680E
:10082000C00306D42868800714D52069012808D1A0
:1008300010E02069B0B1C6F80090FFF713FE07463C
:1008400005E00AE1FFF70EFEC01B0228C4D82868A5
:100850008007F7D52868616920F0F80040EAC100F8
:1008600028600DE0C6F80080FFF7FCFD074604E0B5
:10087000FFF7F8FDC01B022823D828688007F7D4AB
:10088000207800072CD57948A169D9B1C0F800902B
:10089000FFF7E8FD074604E0FFF7E4FDC01B022870
:1008A0000FD8686A8007F7D571484FF4FA5100688D
:1008B000B0FBF1F0009000BF0098411E0091FAD209
:1008C0000EE080E0C0F80080FFF7CCFD074604E0B2
:1008D000FFF7C8FDC01B022875D8686A8007F7D4E7
:1008E0002078400760D5E8690027C00008D4E8698F
:1008F00040F08050E861E869012700F080500090E6
:100900005C480168C90513D40168834641F48071CD
:100910000160FFF7A7FD824606E000BFFFF7A2FDDA
:10092000A0EB0A0064284ED8DBF80000C005F5D51E
:10093000E06801280AD008B1052813D0286A20F001
:1009400001002862286A20F0040002E0286A40F0D2
:1009500001002862E06841F2883B98B1FFF782FD10
:1009600082460BE0286A40F004002862EEE700BFF0
:10097000FFF778FDA0EB0A0159455AD8286A80078D
:10098000F6D50CE0FFF76EFD824605E0FFF76AFD45
:10099000A0EB0A0159454CD8286A8007F6D41FB14C
:1009A000E86920F08050E861E06988B36968C1F3C4
:1009B0008101022944D00228C6F8608004D0FFF7E4
:1009C00051FD044638E034E0FFF74CFD074604E0F3
:1009D000FFF748FDC01B02282BD828688001F7D4F8
:1009E000206AB0F5803F05D16868A16820F4003026
:1009F00008436860D4E908010843696821F4741168
:100A000008436860C6F86090FFF72CFD044606E0D6
:100A100025E000BFFFF726FD001B022809D8286843
:100A20008001F7D51BE000BFFFF71CFD001B02286B
:100A300002D90320BDE8F88F28688001F4D40EE0C5
:100A40000128F7D06868226A00F48031914204D10D
:100A5000616A00F47010884201D00120EAE70020AA
:100A6000E8E70000001002400000424280044242D9
:100A70002C0000200070004010B5401EB0F1807FB7
:100A800001D3012010BD4FF0E02460610F216017F9
:100A900001F0F7FA0020A06107202061002010BDBE
:100AA0007047704710B590F83C20012A22D00122EF
:100AB00080F83C20CA688C6822F4407222434C685B
:100AC00022F4806222430C6822F4006222430C6903
:100AD00022F4805222434C6922F400522243C96915
:100AE000002322F480420A4301684A6480F83C30C3
:100AF000002010BD022010BD70B590F83C20012AE6
:100B000026D0012480F83C40022280F83D20036872
:100B10005A689D6822F070060A6832435A600D4B8D
:100B200002689A4208D0B2F1804F05D00A4B9A422F
:100B300002D00A4B9A4204D1496825F08003194338
:100B4000916080F83D40002180F83C10084670BD5F
:100B5000022070BD002C014000040040000800404D
:100B600010B5040003D094F83D0010B107E0012057
:100B700010BD002084F83C00204600F01FF8022041
:100B800084F83D00211D206801F03EF8012084F822
:100B9000460084F83E0084F83F0084F8400084F862
:100BA000410084F8420084F8430084F8440084F84B
:100BB000450084F83D00002010BD000008B5174A2C
:100BC00001681748914207D1816941F40061816150
:100BD000806900F4006009E0124A914208D1C169BD
:100BE00041F00201C161C06900F00200009008BD3F
:100BF0000D4A9142FBD1C16941F00401C161C06954
:100C0000002200F00400009011461E20FFF796FC21
:100C1000BDE808401E20FFF783BC0000002C014007
:100C200000100240000400400008004090F83D1011
:100C3000012901D001207047022180F83D10016890
:100C4000CA6842F00102CA6000680B49884208D0B5
:100C5000B0F1804F05D00949884202D00849884246
:100C600004D1816801F00701062903D0016841F031
:100C70000101016000207047002C01400004004089
:100C80000008004070B5044690F83C00002501289B
:100C900017D0012684F83C60022084F83D002068CB
:100CA000826822F0770222F47F428260086850282E
:100CB00038D00DDC20284FD005DC90B3102811D19E
:100CC0004AE0022070BD302846D040280AD13BE0DF
:100CD00060282FD070280DD0B0F5805F03D0B0F51C
:100CE000005F12D0012584F83D60002084F83C00AC
:100CF000284670BDCB68D1E90121206800F0CDFF06
:100D00002068816841F0770109E0CB68D1E90121D1
:100D1000206800F0C2FF2068816841F48041816052
:100D2000E1E719E0CA684968206801F06BF85021D2
:100D3000206806E0CA684968206801F074F86021FC
:100D4000206800F0B4FFCEE7CA684968206801F067
:100D500059F840212068F4E7226801461046F0E780
:100D600070472DE9F04104460068C66805694FF0F8
:100D70000007A90713D5B10711D5F91E016101209C
:100D80002077206880698007204602D0FFF7E8FFBF
:100D900004E000F0D9F8204600F07CF927776807D6
:100DA00016D5700714D521686FF004000861022081
:100DB00020772068806910F4407F204602D0FFF73A
:100DC000CFFF04E000F0C0F8204600F063F9277779
:100DD000280715D5300713D521686FF00800086182
:100DE000042020772068C0698007204602D0FFF7E2
:100DF000B7FF04E000F0A8F8204600F04BF9277791
:100E0000E80616D5F00614D521686FF010000861C9
:100E1000082020772068C06910F4407F204602D067
:100E2000FFF79EFF04E000F08FF8204600F032F953
:100E30002777E80708D0F00706D021686FF0010097
:100E40000861204600F076F9280608D5300606D558
:100E500021686FF0800008612046FFF721FE6806D8
:100E600008D5700606D521686FF04000086120465D
:100E700000F080F9A8060AD5B00608D521686FF001
:100E8000200008612046BDE8F041FFF70ABEBDE83A
:100E9000F081000030B585B00021009101910291F0
:100EA0000391244B02682449022424489A420DD11C
:100EB0008A6942F004028A618969039401F004019D
:100EC00004914FF47061CDE900142EE00325B2F1D6
:100ED000804F1FD01A4B9A422AD18A6942F00402ED
:100EE0008A618A6902F0040204928A6942F0080267
:100EF0008A618969039401F008010491C021CDE958
:100F000000146946FFF7B8F9CDE9005469460D4869
:100F100003940BE08A6942F004028A618969CDE991
:100F2000005401F00401CDE903416946FFF7A4F93B
:100F300005B030BD002C0140001002400008014007
:100F400000040040000C0140704770B5044690F862
:100F50003C0000260D4601280FD0012084F83C00FB
:100F60006AB1042A1DD0082A2FD00C2A3FD00126AE
:100F7000002084F83C00304670BD022070BD20681F
:100F800000F09EFE2068816941F0080181612068BF
:100F9000816921F004018161206881692A69114316
:100FA00011E0206800F0B4FE2068816941F400611E
:100FB00081612068816921F4806181612068816993
:100FC0002A6941EA02218161D2E7206800F0CCFE63
:100FD0002068C16941F00801C1612068C16921F040
:100FE0000401C1612068C1692A69114311E02068C8
:100FF00000F0E6FE2068C16941F40061C16120682B
:10100000C16921F48061C1612068C1692A6941EA2E
:101010000221C161ACE710B5040003D094F83D0093
:1010200010B107E0012010BD002084F83C002046EC
:1010300000F01EF8022084F83D00211D206800F019
:10104000E3FD012084F8460084F83E0084F83F0068
:1010500084F8400084F8410084F8420084F843009A
:1010600084F8440084F8450084F83D00002010BD59
:1010700008B50068B0F1804F08D10548C16941F05A
:101080000101C161C06900F00100009008BD0000CD
:10109000001002407047000010B50446022249B11A
:1010A00004290ED0082913D094F84100012816D045
:1010B000012010BD94F83E000128F9D184F83E20AB
:1010C0000FE094F83F000128F2D184F83F2008E0B7
:1010D00094F840000128EBD184F8402001E084F826
:1010E00041200122206800F0CBFD0F492068884292
:1010F00003D1426C42F4004242642068884208D026
:10110000B0F1804F05D00949884202D00849884291
:1011100004D1816801F00701062903D0016841F07C
:1011200001010160002010BD002C014000040040BE
:101130000008004070B500680C49884214D10C4E7C
:10114000002400BF04EB440006EBC00556F8300055
:101150002A46696800F0F8FC0146E860204601F084
:10116000C1F8641C042CEDDB70BD000000080040D9
:10117000300000207047704770470000F8B50168E4
:1011800004460868CA684B6910F00F0F4FF000055D
:1011900059D003F0010602F49077374365D0C107B8
:1011A00005D0D10503D5616C41F0010161644107AF
:1011B00005D5D90703D0616C41F002016164810754
:1011C00005D5D90703D0616C41F0040161640107C2
:1011D00007D502F02001314303D0616C41F00801D2
:1011E0006164616C00293AD0800604D5900602D56E
:1011F000204600F059FE20684069616CC0F3801001
:10120000090700D460B3204600F027FE206840693B
:10121000400621D52068143050E8001F21F040011D
:1012200040E80012002AF5D1E06BA8B16D49416396
:10123000E06BFEF7C3FF002811D0E06B416B01B0FB
:10124000BDE8F040084783060FD593060DD520462C
:10125000BDE8F84000F028BE2046FFF78DFFF8BD3E
:101260002046FFF789FF6564F8BD266B2023012E19
:101270007CD1C6067AD5D60678D50868486800902D
:1012800048694FF00206400640D5E16B08684068A7
:101290000004000CE8D0A28D8242E5D9E08588697F
:1012A00020282DD020680C3050E8001F21F48071D8
:1012B00040E80012002AF5D12068143050E8001FE1
:1012C00021F0010140E80012002AF5D12068143015
:1012D00050E8001F21F0400140E80012002AF5D13B
:1012E00084F84230256320680C3050E8001F21F05C
:1012F000100140E80012002AF5D1E06BFEF73AFF3A
:101300006663A08DE18D401A81B22AE0A08DE18D47
:10131000401A81B2E08D0028A6D00029A4D022680E
:101320000C3252E8000F20F4907042E80007002FC2
:10133000F5D12068143050E8002F22F0010240E877
:101340000027002FF5D184F84230256320680C3047
:1013500050E8002F22F0100240E80023002BF5D1C6
:1013600066632046FFF707FFF8BDFFE705062BD5AC
:10137000150629D594F841002128F5D1A068B0F5CB
:10138000805F01D12069B0B1206A411C21622168CF
:1013900000784860E08C401E0004000CE084E3D13B
:1013A0002068C16821F08001C1602068C16841F0F7
:1013B0004001C160D8E7206A0088C0F30800486097
:1013C000206A801C2062E5E74006CDD55006CBD5CB
:1013D000CA68204622F04002CA6084F8413000F01A
:1013E000B9F9C1E74B1E000870B5040004D094F8A9
:1013F0004100002510B106E0012070BD84F8405086
:10140000204600F023F8242084F841002068C168B9
:1014100021F40051C160204600F0A8FD2068016958
:1014200021F4904101612068416921F02A01416164
:101430002068C16841F40051C1606564202084F8CF
:10144000410084F842006563002070BD70B586B02D
:1014500000240094019402940394474E0368474982
:1014600002200322464DB3422DD18B6943F48043C1
:101470008B618B6903F4804304938B6943F0080309
:101480008B618969039201F0080104914021CDE943
:10149000001069462846FEF7EFFE8020CDE90004E3
:1014A000694628460294FEF7E7FE3648416841F057
:1014B000E06141F004014160002211462520FFF760
:1014C0003DF8252029E0304EB3422AD1CB6943F4C0
:1014D0000033CB61CB6903F4003304938B6943F091
:1014E00004038B618969294D01F0040104910421F1
:1014F000CDE90010039269462846FEF7BDFE08209C
:10150000CDE90004694628460294FEF7B5FE0022A4
:1015100011462620FFF712F82620FFF701F806B043
:1015200070BD1B4EB342FAD1CB6943F48023CB612B
:10153000CB6903F4802304938B6943F008038B6128
:101540008969039201F0080104913115CDE9001079
:1015500069462846FEF790FEF014CDE9000469467E
:1015600028460294FEF788FE002211462720FEF747
:10157000E5FF2720D1E700000038014000100240BD
:10158000000C014000000140004400400008014000
:101590000048004090F84230202B01D002207047D4
:1015A00021B11AB10023036300F03CBD0120704754
:1015B0002DE9F047006860490025604C88426FD1F2
:1015C0005F4821784FF0010A02780B3831B10129C8
:1015D0000AD002290DD003295DD111E0AA2A5AD1DF
:1015E000027084F800A056E0552A53D142700220C0
:1015F00004E00B2A4ED182706570032020704AE00F
:101600004F4963780B31CA545B1CDAB26270092A05
:1016100041D391F800C080F803C04A78027191F973
:101620000270477191F9036086710A79C2714B7932
:1016300003728A794272C97981724FF06409642F0A
:1016400001DD80F8059090F905806FF06307B845DB
:1016500000DA4771642E01DD80F8069090F906608B
:10166000BE4200DA8771067847783E44877867443F
:101670003E4407793E4447793E448779C0793E44E9
:10168000304418441044C0B2814203D100F078FDC8
:1016900084F802A02570012229492A4845E0FFE785
:1016A0002949884245D1294825490278E0782931DD
:1016B0000A54401CC0B2E0700C2833D3A1F11400CE
:1016C0004269C0F806208269C0F80A20C269C0F8E1
:1016D0000E20002210460B5C401C1A44C0B2D2B24D
:1016E0000B28F8D316491B310878AA2819D1487855
:1016F000552816D1087B904213D18878082810D13C
:101700000020A1F1860200BF01EB400300EB400680
:1017100002EBC606401CB3F90430C0B27360042863
:10172000F2D3E57009490A480122BDE8F047FFF706
:1017300031BFBDE8F0870000003801400400002000
:101740009B000020F0010020004400400000002029
:10175000380200207047FEE72DE9F04385B00024F1
:1017600021480094019402940394816941F020017E
:101770008161816901F020010491816941F00401D6
:101780008161816901F004010491816941F00801DE
:1017900081618069DFF8548000F0080048F230056C
:1017A0000490002229464046FEF756FEDFF840909E
:1017B0004FF23807002239464846FEF74DFE0095A5
:1017C000022601250396CDE9015469464046FEF7FD
:1017D00053FD00970396CDE9015469464846FEF74C
:1017E0004BFD05B0BDE8F083001002400008014049
:1017F000000C014010B596B000240F941094119481
:10180000129413941C2168461494FEF792FC202134
:1018100007A8FEF78EFC3448324901604721C0E931
:10182000011444F61F61C0E9031444618461FFF7A9
:1018300097F908B1FEF79CFC4FF480500F900FA968
:101840002948FFF71FFA08B1FEF792FC2648FFF778
:10185000E2FB08B1FEF78CFC139413A92248149400
:10186000FFF74AF908B1FEF783FC6020CDE90004D8
:101870000294039404940594002269461A4806943D
:10188000FFF763FB08B1FEF773FC042269461648B4
:10189000FFF75BFB08B1FEF76BFC082269461248B4
:1018A000FFF753FB08B1FEF763FC0C2269460E48B4
:1018B000FFF74BFB08B1FEF75BFC07940894099413
:1018C0004FF400500A94CDE90B4007A906480E9446
:1018D000FFF7E8F808B1FEF74BFC0348FFF7DAFA28
:1018E00016B010BD002C0140D000002010B58AB009
:1018F000002407941C2168460894FEF71AFC1A4835
:101900004FF0804101604721C0E901144FF6FF719B
:10191000C0E903148461FFF77EFB08B1FEF728FCE1
:10192000079407A910480894FFF7E6F808B1FEF7F6
:101930001FFC6020CDE900040294002269460A4899
:101940000494FFF702FB08B1FEF712FC042269467B
:101950000548FFF7FAFA08B1FEF70AFC0248FFF75C
:1019600099FA0AB010BD00001801002010B58EB021
:1019700000240794089409940A940B941C21684647
:101980000C94FEF7D6FB2A48284901604721C0E99C
:10199000011440F2E731C0E903148461FFF7E0F875
:1019A00008B1FEF7E5FB4FF48050079007A92048E7
:1019B000FFF768F908B1FEF7DBFB1D48FFF72BFBCB
:1019C00008B1FEF7D5FB0B940BA919480C94FFF74F
:1019D00093F808B1FEF7CCFB6020CDE90004029437
:1019E0000022694612480494FFF7AFFA08B1FEF7E7
:1019F000BFFB042269460E48FFF7A7FA08B1FEF7BD
:101A0000B7FB082269460A48FFF79FFA08B1FEF7BC
:101A1000AFFB0C2269460648FFF797FA08B1FEF7BC
:101A2000A7FB0348FFF736FA0EB010BD00040040D4
:101A30006001002010B586B000241748009401947E
:101A400002940394049413490594016041F61F41E4
:101A5000C0E901146321C0E903148461FFF780F831
:101A600008B1FEF785FB4FF48050009069460A48A4
:101A7000FFF708F908B1FEF77BFB049404A90648B8
:101A80000594FFF739F8002801D0FEF771FB06B086
:101A900010BD000000080040A80100200C4810B54F
:101AA0000A4901604FF4E1314160002181600C225C
:101AB000C160C0E904128161C161FFF795FC002893
:101AC00003D0BDE81040FEF753BB10BD0038014005
:101AD000F00100200C4810B50A4901604FF4E131D3
:101AE0004160002181600C22C160C0E90412816163
:101AF000C161FFF779FC002803D0BDE81040FEF774
:101B000037BB10BD00440040380200200C4810B51F
:101B10000A4901604FF4E1314160002181600C22EB
:101B2000C160C0E904128161C161FFF75DFC00285A
:101B300003D0BDE81040FEF71BBB10BD00480040BD
:101B400080020020FEE7FEE710B5411A48B1106997
:101B50004FF47A7308445C421061984205DD1361CA
:101B600006E000201061506110BDA04200DA14614F
:101B700050695161081A1269C1EB011101EB420170
:101B800001EBC000984201DD184610BDA042FCDA0E
:101B9000204610BD70477047FEF76ABC30B58FB065
:101BA00028216846FEF7C5FA14210AA8FEF7C1FAF3
:101BB00001210804CDE900100024029402250491BB
:101BC000CDE907504FF4E01009906846FEF7C4FDD8
:101BD00008B172B6FEE70F20CDE90A054FF4806028
:101BE000CDE90C4002210AA80E94FEF7D9FC00288A
:101BF00001D072B6FEE70FB030BD70470148FFF765
:101C0000B0B80000A8010020F0B50268194B1A4CCA
:101C10001A4D4FF08047984205D0B84203D0A042F9
:101C200001D0A84203D122F070064A68324398429C
:101C300005D0B84203D0A04201D0A84203D122F47B
:101C40004074CA6822434C6922F080022243026039
:101C50008A68C2620A688262984201D10969016396
:101C6000012141610169C90703D0016921F0010126
:101C70000161F0BD002C014000040040000800405C
:101C800010B501F01F030121046A99408C430462DE
:101C9000016A9A401143016210BD10B5846842EA9E
:101CA000032224F47F440A432243826010BD8268E9
:101CB00022F070020A4342F0070181607047000081
:101CC00030B5036A026A22F0010202624268846946
:101CD00024F073050C682C4323F002058B682B431A
:101CE0000A4DA8420BD123F00805CB6822F44072BC
:101CF0002B434D6923F0040315438A692A4342604C
:101D0000846149684163036230BD0000002C0140DA
:101D100030B5026A036A23F01003036243688469E2
:101D20000D6824F4E64444EA05248D6822F020027C
:101D300042EA05120B4DA8420ED1CD6822F0800276
:101D400042EA05124D6923F4406343EA85038D6935
:101D500022F0400243EA850343608461496881635D
:101D6000026230BD002C014030B5036A026A22F4E1
:101D7000807202624268C46923F4007324F0730520
:101D80000C682C438D6843EA05230C4DA8420ED104
:101D9000CD6823F4006343EA05234D6922F44052E1
:101DA00042EA05128D6923F4806342EA051242601B
:101DB000C4614968C163036230BD0000002C01406A
:101DC00030B5046A026A22F4805202624268C36932
:101DD0000D6823F4E64343EA05238D6824F4005498
:101DE00044EA0534064DA84204D14D6922F48042EC
:101DF00042EA85124260C36149680164046230BDF1
:101E0000002C014010B5036A046A24F00104046246
:101E1000846924F0F00444EA021423F00A020A431D
:101E20008461026210BD10B5036A046A24F01004D4
:101E30000462846923F0A00324F4704444EA02326B
:101E400043EA01118261016210BD10B5406A0021B0
:101E5000C185C184FFF790F910BD01680C3151E8CC
:101E6000002F22F4907241E80023002BF5D1016885
:101E7000143151E8002F22F0010241E80023002B29
:101E8000F5D1016B012909D101680C3151E8002F0E
:101E900022F0100241E80023002BF5D1202180F828
:101EA000421000210163704708B590F842102229C2
:101EB00001D0022008BD82684FF480539A4201D1BC
:101EC000016921B1816A9A421BD04AB10AE00268D5
:101ED000816A5268C2F308020A80816A891C08E09C
:101EE000026972B10268526802F07F020A70816A68
:101EF000491C8162C18D491E0904090CC18503D0AA
:101F00001BE002685268F1E70168CA6822F020020B
:101F1000CA600168CA6822F48072CA6001684A69AE
:101F200022F001024A61202180F842100021416321
:101F3000026B012A03D0FFF73BFB002008BD0163C1
:101F400001680C3151E8002F22F0100241E8002313
:101F5000002BF5D101680A68D20602D50A684968E3
:101F60000091818DFFF707F9E7E7000070B504469F
:101F700000680169E26821F440511143016121695F
:101F8000A0680843616908432168CA6841F20C638C
:101F90009A430243CA6020684169A26921F44071F2
:101FA000114341611E492068884202D1FEF79EFB21
:101FB00001E0FEF78BFB00EBC00101EB0012606853
:101FC00064218000B2FBF0F3B3FBF1F36FF018066D
:101FD0007343B2FBF0F5B2FBF0F605EB8305322359
:101FE00003EB0515B5FBF1F5B6FBF1F605F0F005D1
:101FF00005EB0615B2FBF0F6B2FBF0F0B0FBF1F02A
:102000006FF01802504306EB800003EB0010B0FBAA
:10201000F1F0216800F00F002844886070BD0000D6
:102020000038014081628285C285002141642221FD
:1020300080F84210016921B10168CA6842F48072D7
:10204000CA6001684A6942F001024A610068C168D9
:1020500041F02001C1600020704700000148FFF7F7
:102060008DB80000F00100200148FFF787B800009C
:10207000380200200148FFF781B8000080020020EC
:10208000FEE70907090E002804DB00F1E02080F8D4
:102090000014704700F00F0000F1E02080F8141DDC
:1020A000704702E008C8121F08C1002AFAD1704721
:1020B0007047002001E001C1121F002AFBD17047C8
:1020C000FEF7DEF9FFF76AFDFFF746FBFFF792FB2D
:1020D000FFF70CFCFFF74AFCFFF7ACFCFFF7DEFC58
:1020E000FFF7F8FCFFF712FDFFF700FC01221C4987
:1020F0001C48FFF74FFA01221B491C48FFF74AFA18
:1021000000211B48FEF7C8FF04211948FEF7C4FF51
:1021100008211748FEF7C0FF0C211548FEF7BCFF49
:1021200000211448FEF7B8FF04211248FEF7B4FF5F
:1021300000211148FEF7B0FF04210F48FEF7ACFF65
:1021400008210D48FEF7A8FF0C210B48FEF7A4FF5D
:102150000A48FEF76BFD0A20FEF77CF8FBE700005B
:102160009B000020F0010020000000203802002029
:10217000D00000201801002060010020A8010020EC
:1021800070B5544A104692F9055090F906406038EF
:102190006DB964B900210B4601EB4106491C40F8BA
:1021A000363000EBC606042933617361F4DBEB00C3
:1021B00004EB84015C1A1944046081610463816446
:1021C00000214FF47A756E4201EB410350F8334021
:1021D000AC4202DD40F8335003E0B44201DA40F88B
:1021E0003360491C0429EFDB127A002A65D03A4893
:1021F000130740F6C41106D5038864339BB20380ED
:102200008B4200D9018054074FF4FA7306D5048835
:10221000643CA4B204809C4200D20380940706D59B
:1022200044886434A4B244808C4200D94180D407ED
:1022300006D04488643CA4B24480C82C00D24380B9
:10224000140606D584886434A4B284808C4200D9F4
:102250008180540606D58488643CA4B284809C4264
:1022600000D28380940606D5C4886434A4B2C480A6
:102270008C4200D9C180D10606D5C188643989B2A3
:10228000C180994200D2C380134C0021134A083404
:1022900054F8213093B1042B15D0082B30F81130AD
:1022A000156815D02B64491C0429F1DB0C494288C0
:1022B0000B685A6309688088886370BD156830F8B8
:1022C00011306B63EFE7156830F81130AB63EAE764
:1022D000EB63E8E79000002008000020D000002019
:1022E000180100202DE9F0410C1E17DD0122002508
:1022F000224F234EC0B1012824D0022830D0032819
:102300000AD110213846FEF7A7F82A462021384680
:10231000FEF7A2F830680464BDE8F0814FF00002D7
:10232000E5DA01254C42E3E74FF480513846FEF7E9
:1023300093F82A464FF400513846FEF78DF830687E
:102340004463E9E74FF480413846FEF785F82A46B2
:102350004FF400413846FEF77FF830688463DBE7CE
:10236000084F10213846FEF777F82A4620213846D4
:10237000FEF772F83068C463CEE70000000C01403D
:102380006001002000080140010202030405060765
:1023900008090A0B0C0D0E0F1010000000000000C1
:1023A0000000010203040607080900000000010202
:1023B00003040000D42300080000002030000000C7
:1023C000A220000804240008300000209806000025
:1023D000B22000080000000000000000DC05E80357
:1023E000C409F4010000000004000000080000001F
:1023F0000C000000010000001000000000000000C0
:0424000000127A004C
:04000005080000ED02
:00000001FF
